:020000040800F2
:100000001814002009560008F9540008FB54000891
:10001000FD540008FF5400080155000800000000CE
:100020000000000000000000000000000355000870
:100030000555000800000000075500084956000853
:100040004D560008515600085556000859560008EC
:100050005D5600086156000865560008695600089C
:100060006D5600087156000875560008795600084C
:100070007D560008815600088556000889560008FC
:100080008D560008915600089556000899560008AC
:100090009D560008A1560008A5560008A95600085C
:1000A000AD560008B1560008B5560008B95600080C
:1000B000BD560008C1560008C5560008C9560008BC
:1000C000CD560008D1560008D5560008D95600086C
:1000D000DD5600080955000811550008E1560008D2
:1000E000E5560008E9560008ED56000800F5E070F6
:1000F0000268914203D343689A18914202D3806800
:100100000028F5D17047DFF86007016891B9DFF882
:100110005C274FF4803181604FF4805141604FF093
:10012000FF31C160016104214161C2F8BC11DFF8F7
:10013000401701600120704701F1080313F0070325
:1001400005D001F10803C3F1080303F007035918B0
:10015000D21A8161C26042F001034B60511828231A
:100160004B60DFF804170969C16170472DE9F04F52
:10017000064601F1080083B010F0070008BF88466A
:1001800007D001F10800C0F1080000F0070000EB03
:10019000010802F1080010F0070006D002F1080083
:1001A000C0F1080000F0070082181546A5EB080012
:1001B000A0EB030903EB080B43F00300C8F80400AD
:1001C000AB4528BF01F012FA2879C00758BF01F0EB
:1001D0000DFAB9F1100F38BF01F008FAB069854285
:1001E00009D1F0684844F060C6F818B040F001004A
:1001F000CBF804006DE1706985420BD1B0684844CA
:10020000B060C6F814B040F00101CBF8041040F81B
:100210000B005EE1686800F00301012940F0AD8049
:10022000C008C0000190C00820283AD2D5F808A024
:10023000EF680090BD4208BF01F0D8F9554508BFEE
:1002400001F0D4F968680099C008C000B0EBC10F94
:1002500018BF01F0CBF9009806EBC00000F12801AF
:100260008A4507D031698A45C0F08280DAF80C10DF
:10027000A9427DD1574506D1009A306801219140AD
:100280008843306076E02830874205D03069874265
:100290006ED3B868A8426BD1CAF80C70C7F808A032
:1002A00068E0EF68D5F818A0AF420CD0A8683169B3
:1002B000884223D3C168A94204BFB968A9421DD1AD
:1002C000C760B8601CE005F11400076837B905F194
:1002D00010000768A7B101E00846076807F114019C
:1002E0000A68002A02BF07F110010A68002AF3D148
:1002F0003169884202D30021016001E001F076F902
:10030000BAF1000F36D0E86906EB800000F598706E
:1003100001688D4208D10760A7B9EA6970680121B8
:1003200091408843706025E03069824508D3DAF84F
:100330001000A84214BFCAF81470CAF8107001E087
:1003400001F054F9B7B13069874211D3C7F818A04A
:10035000296929B1814226BF39618F6101F046F9CF
:10036000686938B13169884202D37861876101E0F8
:1003700001F03CF901984519814468684008400043
:1003800068604FEAD90549F00100CBF8040049F84C
:100390000B90202D23D206EBC50000F12807BA46AA
:1003A000B9F1100F38BF01F021F9306820FA05F1DA
:1003B000C90704D40121A9400843306006E0B868A9
:1003C000316988422CBF824601F010F9C7F808B0A5
:1003D000CAF80CB0CBF808A0CBF80C7079E05FEA53
:1003E000192108BF002023D0B1F5803F28BF1F206E
:1003F0001ED2A1F58070000C00F008008140A1F52C
:100400008052120C02F004029140A1F580431B0CB3
:10041000C0F10E0003F00203801AC01A994000EBED
:10042000D130C11D29FA01F101F0010101EB4000B9
:10043000CBF81C000022CBF81420CBF8102006EBE0
:100440008001726822FA00F301F59871DB0707D486
:10045000012303FA00F010437060C1F800B01DE002
:100460001F2809680EBF00204008C0F1190009FAD2
:1004700000F000E011464A68D208D2004A4514D084
:10048000C20F01EB820202F1100340001A68002A39
:10049000F0D1306983421AD3C3F800B0CBF81810FA
:1004A000CBF80CB0CBF808B013E032698868914201
:1004B00028BF90420BD3C0F80CB0C1F808B0CBF8FD
:1004C0000800CBF80C100020CBF8180001E001F078
:1004D0008DF808F1080000F0FABD2DE9FA4D054647
:1004E000DFF88403006884B008B9FFF70CFEDFF87A
:1004F00078030499806841182F31401E21EA0000DA
:100500000499814280F0AB8105F5D876B16841B19C
:10051000D5F8B0218018824280F0A1818142C0F0DC
:100520009E8101F077F800281EBF0446D0F80080B5
:1005300014F1010F00F09381D5F8B0014044C5F8E3
:10054000B0017168814238BF01467160A86980BB03
:10055000286908B1844200D22C613461C6F8148045
:100560000020F06105F12801BF48006868624FF083
:10057000FF3028620020C960896001F10802801CF8
:10058000D260103192602028F5D3B848854203D15B
:10059000A8F12802214629E055F8040CC00805EB13
:1005A000C000A0F1080108EB0400401AA0F12802E5
:1005B0001CE005F5E071084600E08068D0B10268F3
:1005C00043689A189442F8D1027B120712D4AA69A0
:1005D00003689A420ED347683B449A420AD208EB1A
:1005E00007014160E868A96908EB00022846FFF7A7
:1005F000A3FD1EE12869844238BF2C61084608EB40
:10060000040100E0806880B102688A42FAD1017B6F
:1006100009070AD404604168414441602146049BB3
:10062000284606B0BDE8F04DA0E5AF69394628463A
:10063000FFF75CFD01684068401802902F3800F118
:10064000080111F0070105D000F10801C1F108010E
:1006500001F00701081807F11001884234BF009724
:10066000009000980830019004F10801009800F112
:10067000180A4FF0000BA8F1280011F0070105D06F
:1006800004F10801C1F1080101F007010A19401A3B
:10069000AA61E86040F001015160801828214160A2
:1006A00071480069E861019810F0070018BF00F078
:1006B0009DFF00991B20486005F5E071B1E80C50E2
:1006C0000198A0E80C503461C6F81480C6F81CB03C
:1006D0000198B061029800E08A460722CAF8042017
:1006E0000AF104010A1D0BF1010B8242F4D3BBF1A4
:1006F000020FB8BF00F07AFF0098B84200F099806E
:10070000C01BC119C4084A68520852004A6040F030
:1007100001017960C051202C20D205EBC40101F108
:100720002806B046102838BF00F060FF286820FA7D
:1007300004F1C90704D40121A1400843286006E060
:10074000B068296988422CBF804600F04FFFB7602F
:10075000C8F80C70C7F80880FE606AE0010A08BF9C
:10076000002223D0B1F5803F28BF1F221ED2A1F561
:100770008072120C02F008029140A1F580531B0C0C
:1007800003F004039940A1F58044240CC2F10E0249
:1007900004F00204D21A121BA14002EBD131CA1D8F
:1007A00020FA02F202F0010202EB4102FA61002398
:1007B0007B613B6105EB82016B6823FA02F401F572
:1007C0009871E40705D401209040184368600F60D9
:1007D0001CE01F2A09680EBF00225208C2F119024C
:1007E00000FA02F200E019464B68DB08DB008342A6
:1007F00010D0D30F01EB830303F1100452002368E0
:10080000002BF0D12869844211D32760B961FF60C1
:10081000BF600EE02A698868914228BF904206D3E3
:10082000C7608F60B860F9600020B86101E000F037
:10083000DDFEE8680499814211D2401AE860A96996
:10084000049A5218AA6140F001005060049840F0E8
:100850000300486006B001F10800BDE8F08D0020FB
:1008600006B0BDE8F08D0000E40B00207C090020FC
:100870006859883C2DE9F04D044688460026C8F1A9
:10088000000B5FEA182008BF002123D0B0F5803F9D
:1008900028BF1F211ED2A0F58071090C01F00801AC
:1008A0008840A0F58052120C02F004029040A0F59E
:1008B00080431B0CC1F10E0103F00203891AC91A0F
:1008C000984001EBD030C11D28FA01F101F001017F
:1008D00001EB400104EB8100D0F8300130B31F2957
:1008E0000EBF00224A08C2F1190208FA02F20023E0
:1008F00000E052004568ED08ED00A5EB08055D45F8
:1009000003D206465FEA050B0CD045694FEAD27E5A
:1009100000EB8E00002D00691CBF85422B4600288D
:10092000E7D1184600283AD1002E3AD1012088405C
:100930004000414208436168084000F0658141423F
:100940000840411E080B00F0100021FA00F2510986
:1009500001F00801CA40930803F00403DA40550887
:1009600005F002050818EA401818C2F3400E2844A2
:10097000704422FA0EF1081804EB8000D0F8300120
:100980000DE008464168C908C900A1EB08015945B6
:100990003CBF8B46064601690029F2D14069002818
:1009A000F0D1002E00F03081A068A0EB0800834554
:1009B00080F02A8120698642C0F024817068C008D6
:1009C000C00008EB0B0108EB0605884218BF00F0D9
:1009D0000DFEAE4280F01681F768D6F818A0B74237
:1009E0000CD0B0682169884223D3C168B14204BFEA
:1009F000B968B1421DD1C760B8601CE006F11400AF
:100A0000076837B906F110000768A7B101E008468A
:100A1000076807F114010A68002A02BF07F11001F4
:100A20000A68002AF3D12169884202D300210160BB
:100A300001E000F0DBFDBAF1000F38D0F06904EB03
:100A4000800000F5987001688E4209D10760380077
:100A500014D1F2696068012191408843606026E00A
:100A60002069824508D3DAF81000B04214BFCAF8F2
:100A70001470CAF8107001E000F0B8FDBFB1206931
:100A8000874212D3C7F818A0306930B12169884273
:100A900026BF3861876100F0A9FD706938B121690E
:100AA000884202D37861876101E000F09FFDBBF1CD
:100AB000100F0CD208EB0B0040F00300706008EB45
:100AC0000B008019416841F00101416096E048F057
:100AD000030070604BF0010068604BF805B04FEA0E
:100AE000DB0020281DD204EBC00101F1280721689A
:100AF00021FA00F2BB46D20705D4012202FA00F027
:100B00000843206006E0B868216988422CBF83460C
:100B100000F06CFDBD60CBF80C50C5F808B0EF607C
:100B20006CE05FEA1B2108BF002023D0B1F5803FB5
:100B300028BF1F201ED2A1F58070000C00F0080015
:100B40008140A1F58052120C02F004029140A1F5FF
:100B500080431B0CC0F10E0003F00203801AC01A80
:100B6000994000EBD130C11D2BFA01F101F00101D8
:100B700001EB4000E86100226A612A6104EB800118
:100B8000626822FA00F301F59871DB0706D40123AD
:100B900003FA00F0104360600D601CE01F28096834
:100BA0000EBF00204008C0F119000BFA00F000E071
:100BB00011464A68D208D2005A4510D0C20F01EB44
:100BC000820202F1100340001A68002AF0D1206965
:100BD000834211D31D60A961ED60AD600EE0226912
:100BE0008868914228BF904206D3C5608D60A86096
:100BF000E9600020A86101E000F0F8FC06F10800BF
:100C0000BDE8F08D00F0F2FC0020BDE8F08D2DE98C
:100C1000F84F04468846606841420840411E080B70
:100C200000F01000C1404A0902F00802D1408B08D0
:100C300003F00403D9404D0805F002051018E940FF
:100C40001818C1F3400628443018F140081804EB86
:100C50008000D0F830014168C908C9000646A1EB00
:100C6000080A09E008464168C908C900A1EB080163
:100C700051453CBF8A46064601690029F2D14069C8
:100C80000028F0D120698642C0F0C4807068C00896
:100C900008EB0A09C00008EB060B484518BF00F036
:100CA000A5FC5E4580F0B680F768B569B7420CD008
:100CB000B0682169884223D3C168B14204BFB968D2
:100CC000B1421DD1C760B8601CE006F1140007688E
:100CD00037B906F110000768A7B101E008460768B8
:100CE00007F114010A68002A02BF07F110010A681F
:100CF000002AF3D12169884202D30021016001E07A
:100D000000F074FC002D34D0F06904EB800000F595
:100D1000987001688E4209D10760380011D1F269DC
:100D20006068012191408843606022E0206985422B
:100D300005D32869B04214BF6F612F6101E000F054
:100D400055FCB7B12069874211D3BD61306930B11C
:100D50002169884226BF3861876100F047FC7069CD
:100D600038B12169884202D37861876101E000F0DF
:100D70003DFCBAF1100F09D249F00300706009EB95
:100D80000600416841F0010141603FE048F0030086
:100D900070604AF00100CBF804004AF80BA0D4F8C8
:100DA00008804FEAD805202D28BF00F01FFCB8F1BD
:100DB000000F27D0D4F81490009504EBC50000F183
:100DC00028052F46B8F1100F38BF00F00FFC20683F
:100DD000009920FA01F1C90705D4009A0121914038
:100DE0000843206006E0A868216988422CBF0746B6
:100DF00000F0FCFBC5F80890C7F80C90C9F8087023
:100E0000C9F80C50C4F808A0C4F814B006F10800E2
:100E1000BDE8F28F00F0EAFB0020BDE8F28F2DE97B
:100E2000F04F83B00546C046C046DFF8B847F52D01
:100E300080F002810B2D31BF102705F10B00C00897
:100E4000C7002068FE08F04010F0030F42D0C043F6
:100E500000F00100861904EBC60000F12808F70035
:100E6000D8F808506868C008C000B84218BF00F041
:100E7000BDFBD5F80890454508BF00F0B7FB4D45D0
:100E800008BF00F0B3FB6868C008C000B84218BFD4
:100E900000F0ACFBC84505D120680121B140884372
:100EA00020600DE02069814508D3D9F80C00A842E4
:100EB00004D1C8F80890C9F80C8001E000F096FB56
:100EC00047F00300686078190835416841F0010176
:100ED0004160F9E0A168B94280F0C080002800F0CC
:100EE000A280012505FA06F149004A42B0401143AB
:100EF000084041420840411E080B00F01000C1406C
:100F00004A0902F00802D1408B0803F00403D940DB
:100F10004E0806F002061018F1401818C1F34008F8
:100F20003018404421FA08F101EB000804EBC80036
:100F300000F128094FEAC80AD9F808607068C008AB
:100F4000C000504518BF00F051FBD6F808B04E4520
:100F500008BF00F04BFB5E4508BF00F047FB706820
:100F6000C008C000504518BF00F040FBD94505D16E
:100F7000206805FA08F1884320600DE02069834568
:100F800008D3DBF80C00B04204D1C9F808B0CBF8A4
:100F90000C9001E000F02AFB47F003007060AAEB20
:100FA0000708B819019048F00100019948600198BC
:100FB00048F80080A7684FEAD70ABAF1200F28BF87
:100FC00000F014FB47B3CDF800A004EBCA00D4F83E
:100FD000149000F1280AD346102F38BF00F006FB0A
:100FE0002068009920FA01F1C90705D4009905FA93
:100FF00001F10843206007E0DAF80800216988421F
:101000002CBF834600F0F2FACAF80890CBF80C9097
:10101000C9F808B0C9F80CA0C4F8088006F10805A2
:101020000198606150E06068C0B339462046FFF720
:10103000EEFD050012D047E015F1400F28BF4FF03C
:10104000FF370BD205F10B00C008C700606828B15C
:1010500039462046FFF70EFC050035D1A068B8429E
:101060001CD3C11B626910290AD3B8186061A16042
:1010700041F001034360095047F0030050600AE06B
:101080000021A160616140F0030151608018416856
:1010900041F00101416002F1080515E0E068874276
:1010A0000DD2C01BA169E0607A18A26140F0010076
:1010B000506001F1080547F00300486004E039463C
:1010C0002046FFF70AFA0546C046C046284603B048
:1010D000BDE8F08F00B970472DE9F047A0F1080492
:1010E000C046C046DFF8FC5428698442C0F07482D0
:1010F000616801F00302012A00F06E82CA084FEA1B
:10110000C20808EB0409CA0736D4226811F0030F9D
:1011100000F06482A41A90448442C0F05D82696940
:101120008C4200F0D880D608202E70D2D4F80CA0C3
:10113000A768544508BF00F059FABC4208BF00F048
:1011400055FA6068C008C000B0EBC60F18BF00F0C9
:101150004DFA05EBC60000F128018F4205D0296940
:101160008F4251D3F968A1424ED1BA453DD128688A
:101170000121B140884328604C4580F02D82D9F888
:101180000400C10740F12882810700F17A81A96932
:10119000894540F0B580E868AC614044E86040F0C3
:1011A0000101616069698C4202D100216961A96015
:1011B000E969814280F01282DFF82C04006808B9E6
:1011C000FEF7A1FFA969002900F00882E868292834
:1011D00024BF2846FEF78AFFE869E968884280F064
:1011E000FD814FF0FF30E861F8E12830824506D0FC
:1011F0002869824508D3DAF80800A04204D1C7F86C
:101200000CA0CAF80870B7E700F0F0F9B4E7E76897
:10121000A669A7420BD0A168814222D3C868A04228
:1012200004BFB868A0421CD1CF60B9601BE004F1D4
:1012300014010F6837B904F110010F689FB101E084
:1012400011460F6807F114021368002B02BF07F163
:1012500010021368002BF3D1814202D300200860F2
:1012600001E000F0C3F9002E86D0E06905EB8000B4
:1012700000F5987001688C4209D10760380011D1DF
:10128000E2696868012191408843686074E72869D1
:10129000864205D33069A04214BF7761376101E00F
:1012A00000F0A4F9002F3FF467AF28698742ABD361
:1012B000BE61216929B1814226BF39618F6100F089
:1012C00095F9606900283FF457AF296988429BD39C
:1012D0007861876150E799F8040000F00300032863
:1012E0007FF44AAFC5F80880D9F8040040084000F0
:1012F000C9F8040048F00100606048F804806DE11E
:101300006969894508D1A8686C614044A86040F0CB
:1013100001016160005161E1C008C0004FEAD00ADC
:101320008044BAF1200F36D2D9F80C70D9F8086091
:10133000B94508BF00F05AF9B14508BF00F056F9A9
:10134000D9F80400C008C000B0EBCA0F18BF00F005
:101350004DF905EBCA0000F128018E4206D029693B
:101360008E42C0F08180F16849457DD1B74206D1F7
:101370002868012101FA0AF18843286076E02830C4
:10138000874205D0286987426ED3B86848456BD13B
:10139000F760BE606AE0D9F80C70D9F818604F4564
:1013A0000DD0D9F808002969884223D3C16849457E
:1013B00004BFB96849451DD1C760B8601CE009F198
:1013C0001400076837B909F110000768A7B101E0F8
:1013D0000846076807F114010A68002A02BF07F1EE
:1013E00010010A68002AF3D12969884202D300213A
:1013F000016001E000F0FAF8002E37D0D9F81C00A7
:1014000005EB800000F59870016889450AD10760F6
:10141000380012D1D9F81C20686801219140884316
:10142000686023E02869864205D33069484514BFC7
:101430007761376101E000F0D9F8BFB128698742D0
:1014400012D3BE61D9F8101029B1814226BF39618B
:101450008F6100F0CBF8D9F8140038B129698842BF
:1014600002D37861876101E000F0C0F848F0010024
:10147000606048F80480686984420BD1C5F8088030
:10148000ACE040084000C9F8040048F0010060608A
:1014900048F804804FEAD807202F22D205EBC70076
:1014A00000F128094E46B8F1100F38BF00F09EF841
:1014B000286820FA07F1C90704D40121B94008437C
:1014C000286007E0D9F80800296988422CBF064641
:1014D00000F08CF8C9F80840F460A660C4F80C90DD
:1014E0007CE05FEA182008BF002123D0B0F5803FE0
:1014F00028BF1F211ED2A0F58071090C01F0080140
:101500008840A0F58052120C02F004029040A0F531
:1015100080431B0CC1F10E0103F00203891AC91AA2
:10152000984001EBD030C11D28FA01F101F0010112
:1015300001EB4001E16100226261226105EB810063
:101540006A6822FA01F300F59870DB0706D40123DC
:1015500003FA01F11143696004601CE01F2900686F
:101560000EBF00214908C1F1190108FA01F100E09C
:1015700010464268D208D200424510D0CA0F00EB94
:10158000820202F1100349001A68002AF0D1296989
:101590008B4211D31C60A061E460A4600EE02A6954
:1015A0008168904228BF914206D3CC608460A160DC
:1015B000E0600020A06101E000F018F8286A401EF9
:1015C00028620BD1D5F8C80100E080680028FCD162
:1015D0004FF0FF30286201E000F008F8C046C04636
:1015E000BDE8F0877C090020E40B0020012000F01A
:1015F00027B850F8041B61B150F8042BD30744BF3F
:10160000A9F101039A18002342F8043B091FFAD1FB
:10161000EFE770470749086808B10020704706489F
:10162000C008C00008600549C908C900091A01605E
:10163000704700BF100C00201F140020181C002051
:1016400080B5C046C046024A11001820ABBEFBE779
:10165000260002002DE9F04F80460FF21860A5B079
:1016600017461D46D0E90023CDE91223002004913E
:101670000D900DF1500A6FF0004900E0E7190020CD
:10168000ADF8020012AB4FF0FF3239460DF1020007
:1016900001F087F80446012C04DA3878441EA4418E
:1016A000E043C40FBDF8020025280CBFA4F1010BD4
:1016B000A346BBF1010F0EDB3E4616F8011B049852
:1016C000C0470490002800F0CF820D98401C0D9078
:1016D000BBF1010BF1D1BDF80200252807D1002094
:1016E0000790089009900A900B900C9005E0002854
:1016F000C4D10D98BAE240F0010017F8011F20296B
:10170000F9D023290DD02B2904D02D2906D030293A
:101710000AD00CE040F0020080B2EEE740F0040096
:10172000FAE740F00800F7E740F01000F4E72A2954
:101730000ED12968296051F8042B29600F92002AE4
:1017400004D5514240F004000F9180B27F1C11E09B
:1017500000210F9109E00F99494505D001EB810364
:1017600002EB430130390F917F1C3A78A2F130012E
:101770000A29F0D339782E2903D04FF0FF310E918A
:101780001DE017F8011F2A2907D1296829607F1C4D
:1017900051F8042B29600E9211E000210E9109E00E
:1017A0000E99494505D001EB810302EB4301303925
:1017B0000E917F1C3A78A2F130010A29F0D3ADF8DE
:1017C00040000FF2B840397801F000F808B117F87E
:1017D000010B8DF842009DF84200682802BF39785D
:1017E0006829622005D06C2804BF38786C2803D1A2
:1017F00071208DF842007F1C14A8069017F8014B49
:10180000B4F125002AD01C3800F0CC80001F02283B
:1018100040F2C880133800F0EE80093800F0C28032
:10182000801E00F04F81401E00F02481401E0228DF
:1018300040F2B880001F00F01D81401F00F083803F
:10184000401E00F0D880401E2DD0C01E0CD0801E3F
:1018500000F0D180C01E00F0CE8056E1012007903C
:1018600025208DF850005BE19DF842006C28286827
:10187000286014D050F8046B286005960E9C002C4C
:1018800004D5304600F0AEFF044606E022460021B3
:10189000304600F0C3FF00B1841B089440E150F8CB
:1018A000042B28602AE13C242968296051F8040BA4
:1018B00029600021CDE9020114A80590DDE90201AB
:1018C000069E11B908B90E9AB2B10206120FA0EB2A
:1018D00002123032631ED2B21C463A2AA8BF273207
:1018E00000099A5540EA0170090908BF002803D091
:1018F000059AA3199A42E8D3A0190590C4F13C01B6
:101900000E980891814209DA401A0A904FF6EF7159
:10191000BDF840000840ADF8400001E1002840F16A
:10192000FF809DF8400000F01400102840F0F8807F
:101930000F98079A801A0A9A801A401A0128C0F252
:10194000EF800A90ECE09DF8420062281AD06828E7
:1019500006D06A280CD06C281CD0712808D019E059
:101960002868286050F8041B28600D980880D7E08C
:101970002868286050F8042B28600D98C117C2E928
:101980000001CDE02868286050F8041B28600D98FD
:101990000870C5E02868286050F8041B28600D987E
:1019A0000860BDE02868C01D20F007022A60D2E967
:1019B000000108322A60CDE90201002903D5012087
:1019C00007902D200CE0BDF84000810703D50120D1
:1019D00007902B2004E0C00704D5012007902020A9
:1019E0008DF85000079914A808180590214602A800
:1019F00000F08CFB94E09DF842206C2A0DD0712AF7
:101A000018BF6A2A09D12868C01D20F007032B607F
:101A1000D3E9000108332B6005E02968296051F8FB
:101A2000040B29600021CDE90201682A08BF80B2B9
:101A300007D0622A08BFC0B203D0742A18BF7A2A1E
:101A400002D10021CDE902019DF84000000730D508
:101A5000DDE90201002908BF00282AD044F0200057
:101A6000782826D130208DF850008AF801400220D5
:101A700007901EE029469DF8420000F003F9CDE9E9
:101A80000201002904DA0798411C07912D210EE07C
:101A9000BDF84000810704D50798411C07912B2110
:101AA00005E0C00705D50798411C0791202100F8E3
:101AB0000A10079914A808180590214602A800F0FA
:101AC000A1FA2DE09DF842006C2809D00120079072
:101AD0002868286050F8041B28608DF850101FE01B
:101AE00001AA2868286050F8041B2860ADF804108B
:101AF0000020ADF806004FF0FF300E9002A94046DE
:101B000000F0F7F800280BD5AEE001200790252063
:101B10008DF8500024B10798411C079100F80A4045
:101B20000F980799401A0A99401A0899401A0B9978
:101B3000401A0999401A0C99441A9DF84000400730
:101B400010D420208DF80000002609E0012300AA0F
:101B500002A9404600F001FE002840F08580761C76
:101B6000A642F3DB079E0DF1500B0AE01BF8011BA8
:101B70000498C0470490002876D00D98401C0D9022
:101B8000761E002EF2D130208DF800004FF0000BB1
:101B90000A9E09E0012300AA02A9404600F0DDFDEB
:101BA000002861D10BF1010BB345F3DB089EDDF892
:101BB00014B00AE01BF8011B0498C04704900028E9
:101BC00052D00D98401C0D90761E002EF2D1302080
:101BD0008DF800004FF0000B0B9E09E0012300AAD6
:101BE00002A9404600F0B9FD00283DD10BF1010BE0
:101BF000B345F3DB05980899099E01EB000B09E05A
:101C00001BF8011B0498C047049068B30D98401C52
:101C10000D90761E002EF3D130208DF800004FF08D
:101C2000000B0C9E08E0012300AA02A9404600F028
:101C300094FDC8B90BF1010BB345F4DB9DF84000EE
:101C400040077FF51CAD20208DF80000002600E045
:101C5000761CA642BFF613AD012300AA02A9404696
:101C600000F07BFD0028F3D04FF0FF3025B0BDE839
:101C7000F08F00000000000000000000686A6C7433
:101C80007A4C0000622826D068281DD06A2808D027
:101C90006C2827D0712804D0742823D07A280CD03F
:101CA00020E00868C01D20F007000860D0E900238C
:101CB000083008601946104670470A680A6052F8F2
:101CC000040B0A60002170470A680A6052F8040B8E
:101CD0000A6000B20BE00A680A6052F8040B0A605E
:101CE00040B204E00A680A6052F8040B0A60C117A7
:101CF00070472DE9F44F0D4694B0D5F830B08046CA
:101D0000BBF1000F48BF6FF0004B00F0B3FD696BF3
:101D1000401801900FF67020D0E90023CDE902238E
:101D200095F83800400702D40198412806D2402097
:101D30000DF1100A01904FF0000909E0FFF76FF86C
:101D40005FEA000AF7D14FF0FF3058E1ABEB040B2C
:101D5000BBF1010FC0F2CD801498018802AA0DF1E9
:101D6000010000F08CFD0446002800F1D580149895
:101D7000008810B9641E00F1CF80A345C0F2B9807D
:101D8000686901992218914280F0A180C5F83490C9
:101D90004042296A401AA969401A696A401AE969E9
:101DA000401AA96AA0EB010995F83800400710D441
:101DB00020208DF80000002609E0012300AA294612
:101DC000404600F0CAFC002840F0A680761C4E4534
:101DD000F3DB6E6957460BE017F8011BA868C04794
:101DE000A860002800F09880E86A401CE862761E2F
:101DF000002EF1D130208DF8000000272E6A09E076
:101E0000012300AA2946404600F0A7FC002840F024
:101E100083807F1CB742F3DBAE69EF680AE017F8F6
:101E2000011BA868C047A860002875D0E86A401C5C
:101E3000E862761E002EF2D130208DF800000027D7
:101E40006E6A08E0012300AA2946404600F085FC9E
:101E5000002861D17F1CB742F4DBE868A969EE690C
:101E60000F180AE017F8011BA868C047A8600028EF
:101E700052D0E86A401CE862761E002EF2D1302073
:101E80008DF800000027AE6A08E0012300AA294669
:101E9000404600F062FC00283ED17F1CB742F4DBD4
:101EA00095F8380040070ED520208DF80000002658
:101EB00007E0012300AA2946404600F04EFC58BB2B
:101EC000761C4E45F5DB4FF00009C5F8149022460C
:101ED00068690DF10101504400F0DEFC68692018CA
:101EE00068611498801C1490801E008800287FF47C
:101EF0002DAF686B6969401A296A401AA969401AAE
:101F0000696A401AE969401AA96A471A95F83800BF
:101F1000400710D400240CE04FF0FF3968E0A868B7
:101F20002021C047A8600028F6D0E86A401CE8627B
:101F3000641CBC42F3DB6B6952462946404600F004
:101F40000CFC0028E8D12C6A002609E0A8683021A2
:101F5000C047A8600028DFD0E86A401CE862761C11
:101F6000A642F3DBAB69EA682946404600F0F5FB80
:101F70000028D1D16C6A002609E0A8683021C0474A
:101F8000A8600028C8D0E86A401CE862761CA64217
:101F9000F3DBE868A969EB690A182946404600F0B6
:101FA000DCFB0028B8D1AC6A002609E0A868302123
:101FB000C047A8600028AFD0E86A401CE862761CE1
:101FC000A642F3DB95F8380040070DD5002409E060
:101FD000A8682021C047A86000289DD0E86A401C5E
:101FE000E862641CBC42F3DBC5F81490C5F8349079
:101FF00004A882451CBF5046FFF76CF8484615B050
:10200000BDE8F08F2DE9FA4E05460A462F696F2A82
:1020100008BF082405D041F02000782814BF0A2406
:102020001024D5E900013C2681468A46642A18BF5F
:10203000692A05D1002903DAD9F100096AEB4A0AB5
:10204000BAF1000F08BFB9F1000F0CD1286B50B9DD
:10205000082C36D195F83800000732D530203B26C1
:1020600087F83B002DE0E31748465146224600F032
:102070004FFCA4FB0023A9EB02023032A6F1010BB6
:10208000D2B25E463A2A03DB9DF80030513B9A18E3
:102090000BF8072081465FEA010A08BFB9F1000F7B
:1020A00003D0E868F1198842DDD3082C09D195F8EE
:1020B0003800000705D5F05D302802D0761E3020AC
:1020C000F055C6F13C00A861F119E960296B88421E
:1020D00008DA081A28624FF6EF71288F084028871F
:1020E000BDE8F38E00290ED595F8381001F01401E3
:1020F000102908D1696B6A69891A2A6A891A081A2B
:102100000128A8BF2862BDE8F38E00002DE9F24F38
:1021100004468EB0D4E90001CDE9020104AF9DF878
:10212000380040F0200BBBF1610F0AD0206B002873
:1021300048BF062004D408BFBBF1670F01D10120BE
:1021400020636168C1F30A5040F2FF7290421CD1D3
:10215000080304BF2068002809D10320A0619DF86E
:10216000380061381A2836D30FF2306108E00320B6
:10217000A0619DF8380061381A2829D30FF2146144
:10218000E068032200F088FBBEE1012816DA204651
:1021900000F035FC012811DB00250020BBF1610FA8
:1021A00020D1E168302201F8012B4A1CE2609DF841
:1021B0003820612A0CBF782258220FE0626840F272
:1021C000FE3161F31E52451A62604FF0FF30E5E7C1
:1021D0000FF2BC51D4E70FF2C051D1E70A70616928
:1021E000891C616110B90026002584E1BBF1610FF3
:1021F00040F09780206B00284CBF2126461CDDE96B
:102200000201D4E900AB0022002336B200F018FC32
:1022100006F101083ABF8BF00040CDE902A0CDE9FC
:1022200002AB2D1F8DF810200DF1110700E0C71D26
:10223000B8F1010F33DBDDE902010022002300F0D9
:1022400017FC2CD21C2102A800F02AFCDDE90201B7
:1022500000F0ACFCA8F107088146B8F1010F09DBDA
:1022600000F0D0FC02460B46DDE9020100F0E2FC82
:10227000CDE90201F81D072105E009F00F0200F881
:10228000012D4FEA2919B9F1010F01DB491EF4D5DF
:10229000491E5CBF002200F8012DF9D5C7E70DF1FA
:1022A0001100391A0DF11107B142B8BF0E4636B20E
:1022B00030002FD4884206DA04A941184978082949
:1022C000A8BF0F2100DA002104AA821800E0761EC0
:1022D00012F80139401E8B42F9D00F2904D104A90C
:1022E00041184A78521C4A70002802D504AF761C67
:1022F0002D1D36B2701E0DD4C1190A783032D2B2FB
:102300003A2A03DB9DF838303A3B9A1801F8012944
:10231000401EF2D5206B002840F1ED80701E206336
:10232000E9E0DDE902010022002300F089FB3CBF67
:1023300081F00041CDE902012DB247F29750684388
:102340004B49DFF8309190FBF1F52DB2C5F1070A4A
:102350009046BAF1010F1CDBDDE902675FEACA7043
:1023600007D542464B463046394600F023FD064627
:102370000F464FEA6A0A4046494642464B4600F03D
:1023800019FD80468946BAF1000FE7D1CDE9026711
:1023900024E0CAF1000A0026374F14E05FEACA7051
:1023A00007D542464B463046394600F003FD064607
:1023B0000F464FEA6A0A4046494642464B4600F0FD
:1023C000F9FC80468946BAF1000FE7D1DDE9020148
:1023D00032463B4600F0C0FDCDE90201BBF1660F7D
:1023E0000CBF05F10A000620216B4618142EA8BF69
:1023F000132630208DF810000DF11107DFF87C90C6
:10240000012E3DDBDDE9020100F0E6FB07F10801EA
:1024100004220A23B0FBF3F303EB8307A0EB47008E
:10242000303001F8010D0A20B3FBF0F000EB80071B
:10243000A3EB4703303301F8013D521EE9D1083EBA
:1024400001F10807012EDBDBDDE9020100F0C4FB2E
:1024500000F0E2FB02460B46DDE9020100F0EAFB78
:1024600000224B4600F0A6FCCDE90201CAE700BFFE
:10247000A0860100000024400000F03F84D797416F
:102480000DF11100381A0DF1110702E0401E6D1E0A
:102490007F1C39783029F9D0BBF1660F02D12DB2FB
:1024A000691C04E0BBF1650F0CBF01210021226B08
:1024B0008E1836B2B042B8BF064636B231001AD4D2
:1024C000814204DAC85D3528A8BF392000DA3020FF
:1024D000CA19521E00E0761E12F80139491E8342C5
:1024E000F9D0392802D1C85D401CC855002902D551
:1024F0007F1E761C6D1C2DB29DF83810009533B2EE
:102500003A46204600F003F80FB0BDE8F08F2DE901
:10251000F04786B006468A4690461D4600F05DFEAE
:10252000406A376B90F80090012D02DA01250FF216
:1025300070284AF02000BDF93840662808BF641CA6
:1025400012D0672876D114F1040F79DBBC4277DA18
:1025500096F83800641C000702D4BD42B8BF2F466D
:1025600024B23F1B48BF0027F068B16924B2012C98
:1025700021DA30234A1C0B54012F03DA96F8381065
:10258000090702D502F80090521CB261E742B8BFB9
:102590007C4224B26142E7197162AF42B8BF3D4646
:1025A0002DB2F5612A46B3694146181800F074F956
:1025B000781BB062BAE00818A54216DA2A464146EE
:1025C00000F06AF9B1696918B161601B7062012F8E
:1025D00003DA96F83800000705D5F06801F8009096
:1025E000F069401CF061B762A0E02246414600F06D
:1025F00053F9B06920182D1B012F03DA96F8381013
:10260000090703D5F16800F80190401C2DB2B061B4
:10261000AF42B8BF3D46F068B3692DB22A4604EB1D
:102620000801181800F038F9B0692818B061781B53
:1026300070627BE0BAF1610F14D14FF0700A16E0BE
:10264000BD4204DA96F83810090758BF2F467F1E9E
:1026500048BF0027BAF1670F14BF4FF0450A4FF08B
:10266000650A04E0BAF1410F08BF4FF0500AB169A2
:10267000F06818F8013B0B544A1C012F05DA96F854
:102680003810090758BFB26115D502F80090531CE5
:10269000B361012F0FDB6D1E2DB2AF42B8BF3D46B7
:1026A0002DB22A464146181800F0F6F8B0692818ED
:1026B000B061781B7062F068B16901EB000820001E
:1026C00008F801AB03D42B2008F8010B03E02D21FF
:1026D00008F8011B6442002502AF08E00A2200A8A6
:1026E00000F094FD019807F8010B6D1C009C21B2CD
:1026F0000129F3DA022D06DA4AF02000652804BF2A
:10270000302008F8010B4DB9302008F8010B07E024
:102710006D1E02A8285C303008F8010B012DF7DA95
:10272000F068B1690818A8EB0000F06196F838006D
:1027300000F0140010280DD17069B1690818716A91
:102740000818F1690818B16A0818716B8842BCBF93
:10275000081A306206B0BDE8F087F8B504460D46A9
:1027600016461F46002004E0E86A401CE8627F1E0F
:10277000002047B116F8011BA868A047A8600028F0
:10278000F2D14FF0FF30F2BD000000000000000069
:102790006E616E004E414E00696E6600494E460005
:1027A0003000F8B504460D4616461F4600F03FFDC2
:1027B0003B4632462946204601B0BDE8F04000F0D5
:1027C0004CBD0268531C0360117070470278C9B297
:1027D0008A421AB11CBF10F8012FF9E718BF002078
:1027E0007047000000F10103810704D010F8011BBD
:1027F00089B18107FAD10268B2F10131914311F038
:10280000803F04BF50F8042FF6E710F8011B11B108
:1028100010F8011BFBE7C01A70470000C9B283071C
:1028200006D0521E22D310F8013B9942F7D11FE087
:10283000083A13D302F1040241EA012141EA0141BD
:1028400050F8043B121F21BF4B40A3F1013C2CEA7E
:10285000030C1CF0803FF3D0C9B2001F083210F8FF
:10286000013B521E28BF91EA030FF8D818BF012080
:10287000401E704780B500F0DAFC012002BD70B543
:1028800004460D46164600F0D2FC32462946204644
:10289000BDE8704000F0D4BC62B38B0708D0521E74
:1028A00011F8013B00F8013B00F024808B07F6D1C2
:1028B000830740F0208000BF103A07D330B4B1E85E
:1028C0003810103AA0E83810F9D230BC530724BFB2
:1028D000B1E80810A0E8081044BF51F8043B40F8E4
:1028E000043BD20724BF31F8022B20F8022B44BF4F
:1028F0000B7803707047083A07D3B1E80810083A1C
:1029000040F8043B40F804CBF7D25307E4E700005B
:102910001B4213D1094236D12AB18446B0FBF2F0F2
:1029200002FB10C2704700F0BBBCFCD300220023A6
:1029300070470B000200002100207047904271EBAD
:10294000030CF6D370B5B1FA81F4B3FA83F52C1BFE
:10295000A340C4F1200532FA05F63343A2405FF0EC
:102960000046E64002E05B085FEA3202841A71EB3F
:10297000030524BF204629467641F4D302000B000C
:102980003000002170BD012ACFD970B5140C20D0C1
:10299000B1FA81F4B2FA82F5C4F120046419B4F1F9
:1029A0002006D6D3B2405FF00044F440002502E098
:1029B00052085FEA3303C61A71EB020E24BF304699
:1029C000714664416D41F3D302000B0020002900E1
:1029D00070BD0C46B1FBF2F102FB11452D0445EA36
:1029E0001045B5FBF2F402FB145580B240EA0545F0
:1029F000B5FBF2F002FB105240EA044070BD30B467
:102A0000436803F0004201211B031B0B436004BF1A
:102A10000368002B08D10DE00368DD0F45EA44048C
:102A200044605B000360491E4468E302F4D523035D
:102A30001B0B436043681A434260084630BC704732
:102A40004FF4001C1CEB410F94BF1CEB430F09E03B
:102A500041EA030C50EA4C0C52EA0C0C03D29942A6
:102A600008BF9042704714BF8B42824270470000FB
:102A70004FF4001C1CEB410F94BF1CEB430F09E00B
:102A800041EA030C50EA4C0C52EA0C0C03D28B4284
:102A900008BF8242704714BF9942904270470000BD
:102AA00070B504460D466068C0F30A5040F2FF71ED
:102AB000884207D16068000304BF2068002817D04F
:102AC000022070BD20B92046FFF799FF012867DA80
:102AD000012D0FDB40F2FF71091A8D420AD36068A5
:102AE000002847BF00202F4900202F49C4E90001DA
:102AF000012070BD4142A942616806DA6FF31E51A0
:102B0000401941EA0050606041E0401E63680122C4
:102B1000451962F31F5305F1350001F00041636070
:102B2000352803D361600020206070BD002215F1BC
:102B30001F0F04DA2268236000202035606068429D
:102B400013D0521E25689241C0F12003D2439D400C
:102B500045EAD27225686668C54006FA03F32B433E
:102B60002360636823FA00F0606060680843606077
:102B7000B2F1004F03D80DD12078C0070AD52068E4
:102B8000401C2060206828B96068401C60604FF0DD
:102B9000FF3070BD6068884204BF20680028F6D10D
:102BA000002070BD0000F0FF0000F07FF446400DF3
:102BB00040EAC120490006D200F014F8004248BFA4
:102BC0006FF00040604700F00DF84FF00041884280
:102BD0008CBF084640426047400D40EAC120490092
:102BE00080F00D8040F00040490DA1F58061491C46
:102BF00005D4D1F11F0154BFC840C01770474FF032
:102C000000007047010040F10980F446404200F0A6
:102C100005F851F000416047010000BF09D0B0FA4B
:102C200080F18840C91CC1F58461090501EBD02100
:102C30004005704770B44FF0004591EA030F44BF60
:102C40006B4000F039BB00BF841A71EB030604D25D
:102C50006E40001BB141121973414FF4001C1CEB74
:102C6000410F34BF7CEB430684E00C0DA4EB1356FC
:102C7000362E7DDC012E43DC45EAC32343EA525362
:102C800012BFD20292025B08240545EAC12141EA43
:102C90005051D2EBC020994125D407D1B0FA80F62B
:102CA00010FA06F164D00020203608E0B1FA81F66F
:102CB000B140C6F1200220FA02F21143B0404FEABF
:102CC000F474B4EB465434F001064FEA74040AD8A5
:102CD000D6F50016760D04F00044F04061FA06F2D5
:102CE0005040F1404840C00A40EA415021F00041C4
:102CF00028BF5FEA500550F1000044EBD12137E0D6
:102D000045EAC323DB0A45EAC121C90AB6F1200519
:102D10000EDD42EA0242120CC5F1200603FA06F665
:102D2000EB4042EA06056D42984161F100010DE079
:102D300062FA06F5F240554063FA06FC82EA0C029C
:102D4000F3405A406D42904161EB030111F4801F42
:102D500005D1641E620502D06D004041494121F455
:102D60008011430875F1004350F1000041EB04511C
:102D700070BC70471CEB410F15D223F0004352EAA0
:102D800043060BD04FEA4C0CBCEB410F04D80C0DA2
:102D9000661E342EB7DDEBE7801A994150EA4106F2
:102DA00008BF0021E4E708BF1CEB430F28BF6FF00A
:102DB0000001DDE7B0B581EA030C0CF0004C40F2F5
:102DC000FF7515EA11541DBF15EA1357AC42AF4207
:102DD00039E0E41923EA455343F48013C90241F072
:102DE000004141EA505EC7021100A7FB0202002821
:102DF0004FF00000EEFB01204FF00001E3FB072144
:102E000018BF42F00102401800214941E3FB0E01C6
:102E1000A4F580640F0302D252004041494154F1AD
:102E200001046CDD470872F1004250F1000051EBE3
:102E30000451A1F580115CBF41EA0C01B0BD4CEA20
:102E400005510020B0BD05EA1357AC4214BFAF4294
:102E500041E050EA410E1CBF52EA430E02E06146D7
:102E60000020B0BD24423C441BD15FEA070EF6D0DF
:102E7000090302BF01460020AEF1140EB1FA81F73A
:102E8000AEEB070401FA07FE0C37C7F1200100FA88
:102E900007F7C8404EEA000E23EA455343F4801377
:102EA000A2E733F00043B3FA83F704BFB2FA82FE1D
:102EB00077440B3FE41BB7F1200E2FBF02FA0EF34D
:102EC000BB40C7F1200E22FA0EFE38BF43EA0E03C4
:102ED000BA40641C82E750EA410E14BF52EA430E26
:102EE0006FF000014FF4001717EB430F8ABF19462C
:102EF00017EB410FB5E74CEA05510020B0BDD4F106
:102F00000104B4F120070FDAC4F12007520828BFEA
:102F100042F0010210FA07F501FA07F7E1BF2A4370
:102F2000E0403843E1400FE0352C98DCC7F1200445
:102F300052EA400220FA07F218BF42F0010231FAC9
:102F400007F0A1400A43002172F1004250F1000055
:102F500051EB0C01B0BD0000F0B540F2FF7581EA05
:102F6000030C0CF0004C15EA11541DBF15EA135761
:102F7000AC42AF42E5E0BC41C1F31301C3F313031C
:102F8000801A994143F4801304D2641E40004941E1
:102F900080185941C90241EA5051B1FBF3F603FBD5
:102FA0001611A2FB0675D7EBC020A94102D2761EEE
:102FB00080185941C90241EA5051B1FBF3FE03FBAD
:102FC0001E11A2FB0E75D7EBC020A94103D2AEF1B2
:102FD000010E80185941890241EA9051760546EA6E
:102FE0008E2EB1FBF3F603FB1611A2FB0675D7EB91
:102FF0008020A94102D2761E80185941C90241EAB7
:1030000050514EEA060EB1FBF3F603FB1611A2FB7C
:103010000675D7EBC020A94102D2761E801859410F
:10302000C90241EA5051B1FBF3F703FB1711A2FBB0
:103030000735D3EBC020A94167F100070CBF004260
:1030400047F0010766F3D5274FEA1E31B80814F59B
:10305000806412DDBD0775F1004250EB0E5051EB5C
:10306000045111F5801F5CBF41EA0C01F0BD4CF02A
:103070007F6141F0E0410020F0BDBD076D0840EAEE
:103080000E5041F48011D4F10104B4F120060ADAA3
:10309000C4F120060200E04001FA06F3E1401843C3
:1030A000B24015430EE0342C13DCC6F1200445EA8F
:1030B00040056D0820FA06F2154321FA06F0A140FA
:1030C0000D43002175F1004250F1000051EB0C015D
:1030D000F0BD00205FEA0C01F0BDCFB992185B4152
:1030E000B3FA83F704BFB2FA82F6BF190B3FB7F108
:1030F00020062FBF02FA06F3BB40C7F1200622FAD2
:1031000006F638BF3343BA401CB1E419641E33E7F6
:103110007F4231F00041B1FA81F404BFB0FA80F689
:10312000A4190B3CB4F120062FBF00FA06F1A14010
:10313000C4F1200620FA06F638BF3143A0403C1BFC
:103140001AE7AC421ABF05EA1357AF4212E050EA41
:1031500041061CBF52EA4306BFE750EA410730462A
:1031600061461CBF41EA0551F0BD52EA430C08BF5D
:10317000C143F0BD00204FF4001616EB410F98BF7D
:1031800016EB430F08BF16EB410F24BFC14305E008
:1031900016EB430F0CBF61464CEA0551F0BD000031
:1031A00080B5134800F0F2F80FF248010160416069
:1031B0008160C1600161416181610FF23C02426244
:1031C0008162C162016341630FF2300282630FF2D8
:1031D0003402C2630164416401BD10B5044800F0CB
:1031E000D5F80446206808B9FFF7DAFF204610BD7D
:1031F00000000020000000002E00000066616C73DB
:1032000065000000747275650000000091FBF2F328
:1032100003FB1211C0E900317047000010B50446ED
:10322000DFF8180000F0B2F850F8240010BD80B5A7
:10323000DFF8080000F0AAF8806902BD90000020C5
:1032400030B430B90FF24800D0E90045C2E900457A
:103250001BE00170012030BC704730B431B90FF26F
:103260003800D0E90045C3E900450EE01AB930BC8A
:103270006FF00100704708B10A7802800978481E93
:10328000804130BCC043C00F7047002030BC704745
:10329000000000000000000000000000000000002E
:1032A0007047000070B44FF0004591EA030C44BF32
:1032B0006B40FFF7C9BC00BF841A71EB030603D251
:1032C000001BB141121973414FF4001C1CEB410F5C
:1032D00034BF7CEB430443E00C0DA4EB1356352EB6
:1032E00050DC45EAC323DB0A45EAC121C912B6F125
:1032F00020050DDD63FA05F6EB4086EA0305124270
:1033000018BF45F00105C01851F100010CD213E0BF
:1033100062FA06F5F2405540F3415A40B340F3409B
:103320005A408018594107D349085FEA30005FEAE4
:10333000350528BF45F0010501F58011420875F1FA
:10334000004250F1000041EB045170BC4FF4001CEE
:103350001CEB410F38BF70470020090D090570476D
:103360001CEB410F10D252EA43060BD0BCEB410FCD
:1033700005D80C0DAB43661E342EB5DD02E0AB4321
:103380008018594170BC704770BC7047704700008E
:10339000012110F01F029140DFF8E82340B24009FC
:1033A00042F82010704710B500242021DFF8D80320
:1033B00000F09FFA002819D05FF0804000F010FB69
:1033C000DFF8C8138880DFF8C00300F08EFA04002D
:1033D000DFF8B803DFF8B413498808188471DFF800
:1033E000AC034088401CDFF8A4134880DFF89C033E
:1033F0004088B0F5806F0ADD0120DFF89013087077
:10340000002240F22551DFF8800300F041FA262027
:10341000FFF7BEFF10BD70B504000D0000260EE0E2
:103420004021DFF8640300F064FA0028F8D0B6B257
:10343000315D89B2DFF8500300F053FA761CADB26B
:10344000B6B2B542ECD270BD2DE9F843060089460C
:1034500017009846F6B2602E02D118F1080400E079
:103460004446A4B214F10A00FDF7D9FC0500AA20D5
:10347000287055206870C6480078A8700020E87051
:103480002E7185F80590A4B2200AA871EC711FFA7C
:1034900088F8B8F1000F08D01FFA88F815F108096C
:1034A000424639004846FFF7F7F9F6B2602E0AD1D6
:1034B0000822B8491FFA88F818EB050010F1080631
:1034C0003000FFF7E9F914F1080189B2280000F093
:1034D00042FB80B2010AA4B262191172A4B261194E
:1034E00048720221AC4800F06AFC14F10A0189B26A
:1034F0002800FFF790FF0221A74800F063FC280096
:10350000FDF7E8FDBDE8F18370B584B00400002547
:103510000C21002200AE300000F09AFC2078AA288E
:1035200002D16078552803D09C4800F0C5FCF2E039
:10353000A079E17911EB00200A3080B2011911F86D
:10354000021C0D0280B2011911F8011C0D43811EED
:1035500089B2200000F0FFFAADB2854203D0904856
:1035600000F0AAFCD7E0A078002804D1E0788849D0
:103570000978884200D0CEE020798DF80100A0794A
:10358000E17911EB00202179102905D0402928D0BC
:10359000412900F09E80B5E0A468002515E081482F
:1035A000EDB210EB051044607E48EDB210EB051053
:1035B00040687C49EDB22A01515800F08FFC7949EE
:1035C000EDB211EB051188606D1CEDB2042DE6DB48
:1035D000744801904020ADF8080060208DF800008C
:1035E00090E080B2022870D1207A002805D002280D
:1035F00035D01BD303284BD063E065480079617A4E
:10360000884212D00821684800F0CEFBC0B20028E2
:1036100004D00821644800F0D5FB03E0082162488B
:1036200000F0CDFB607A5A4908714AE05848407969
:10363000617A884212D010215B4800F0B5FBC0B21D
:10364000002804D01021584800F0BCFB03E01021F2
:10365000554800F0B4FB607A4D49487131E04C4860
:103660008079617A884212D020214F4800F09CFB7B
:10367000C0B2002804D020214B4800F0A3FB03E097
:103680002021494800F09BFB607A4149887118E08D
:103690003F48C079617A884212D04021424800F008
:1036A00083FBC0B2002804D040213F4800F08AFBD1
:1036B00003E040213C4800F082FB607A3449C87145
:1036C000FFE770208DF8000002E071208DF8000007
:1036D00018E080B2042811D1207A2D490872607A4E
:1036E0002B494872A07A2A498872E07A2849C87220
:1036F00000F08CF970208DF8000002E071208DF848
:103700000000FFE7BDF80830019A9DF801109DF810
:103710000000FFF799FE7FBD10B51C4840880028C7
:1037200012D05FF0804000F05BF918498988401A98
:1037300080B2152808DB012014490870002240F2ED
:103740002551114800F0A4F810480078012817D13D
:103750000E4841881548FFF7D7FE00200B494880E6
:1037600000200A4908704FF4806100220F4C2000AD
:1037700000F06EFB012240F22551034800F088F86A
:1037800010BD000080E200E0004400406C01002019
:10379000FC0B0020000C0020000801401855000818
:1037A00068540008A40B0020000C014072010020A6
:1037B000F0B585B004000D00002000210022002398
:1037C0000026AF89002F2600208A4CF6FF710840A2
:1037D000E98808432082A0894EF6F3110840A988A1
:1037E0002A8911436A8911430843A081A08A4FF6B0
:1037F000FF410840A9890843A08200A800F0DAFB35
:103800001B48864201D1039900E00299A089000477
:1038100007D5192000FB01F029684900B0FBF1F23F
:1038200006E0192000FB01F029688900B0FBF1F2E5
:103830006420B2FBF0F000010109642303FB1123B3
:10384000A189090408D5D90032316422B1FBF2F113
:1038500011F00701084307E0190132316422B1FB7E
:10386000F2F111F00F010843208105B0F0BD000016
:1038700000380140C9B2002904D0818951F40051B7
:10388000818104E081894DF6FF721140818170478A
:10389000F0B4002300240025002689B240F66A1700
:1038A000B94206000800C0B24309DBB289B211F088
:1038B0001F04012010FA04F5012B01D10C3604E09D
:1038C000022B01D1103600E01436D2B2002A03D008
:1038D00030682843306002E03068A8433060F0BCB4
:1038E0007047C905C90D818070478088C005C00D2B
:1038F0007047002289B2B1F5007F0088084201D0EC
:10390000012200E000221000C0B2704710B4002273
:10391000002389B240F66A14A14289B20A0A012141
:1039200011FA02F39BB2D943018010BC704700002A
:10393000002203881A00DFF8AC30984212D0DFF87A
:10394000BC3098420ED0B0F1804F0BD0DFF89830E9
:10395000984207D0DFF89430984203D0DFF89030D7
:10396000984204D14FF68F731A404B881A43DFF800
:103970008430984208D0DFF88030984204D04FF667
:10398000FF431A40CB881A4302808A8882850A88BE
:103990000285DFF8502090420FD0DFF8602090427F
:1039A0000BD0DFF85C20904207D0DFF8582090421F
:1039B00003D0DFF85420904201D1097A0186012119
:1039C00081827047C9B2002904D0018851F00101F9
:1039D000018004E001884FF6FE72114001807047BB
:1039E000808C7047002C014000040040000800401B
:1039F000000C004000100040001400400034014062
:103A0000004001400044014000480140F8B5002555
:103A10004FF47C4603200500A44F00F059FB3420EE
:103A200000F0D9FB300000F067FB002406E03968A5
:103A3000300000F090FB361D3F1D641CA4B2ADB2F7
:103A4000AC42F4D300F04FFBF1BD80B597484FF482
:103A50007C410C22FEF720FF002005E00021934A64
:103A6000C0B282181171401CC0B20428F6DB8F4826
:103A70000078FF280FD08D48007AFF280BD08B48A4
:103A8000407AFF2807D08948807AFF2803D08748EA
:103A9000C07AFF2810D10120844908700020834992
:103AA00008720020814948720020804988720020F5
:103AB0007E49C872FFF7AAFF01BD10B57C480078A7
:103AC00000283ED0002405E001207849E4B26118C6
:103AD0000871641CE4B2042C33DA7448E4B2201890
:103AE000007A0028F5D07148E4B220180079002847
:103AF000EFD1704800686D49E4B26118097A4FF45B
:103B00007A7251438842E4D1E4B2002C05D0022CF1
:103B10000DD007D3032C0FD0D6E70821664800F05C
:103B20004EF9D1E71021644800F049F9CCE7202193
:103B3000614800F044F9C7E740215F4800F03FF9D1
:103B4000C2E75C4800684EF66121884202D300203B
:103B50005749087010BD10B40022002302E01C5C1D
:103B6000A2185B1C89B28B42F9D3100080B210BC42
:103B7000704780B55FF08040FFF732FF4F490988FA
:103B8000401A80B20A280ADB4A480068401C4949AA
:103B900008605FF08040FFF723FF4849088001BDBF
:103BA00038B504005FF08040FFF71AFF05005FF0B2
:103BB0008040FFF715FF401B80B2A4B20A2101FB31
:103BC00004F18842F3DB31BD80B53A4800683C49D6
:103BD0000968401AB0F57A7F17D93A4800F04CFCD2
:103BE00039490860374800F073FC374908613748A5
:103BF00000F042FC34490862344800F069FC324964
:103C000008632C4800682E49086001BD70B5002685
:103C1000C82028490968274A1268B2FBF0F200FB65
:103C20001210002831D100262CE02748F6B210EB04
:103C30000610C06800F0A4FC04000D002248F6B293
:103C4000310109582048F6B210EB0610406800F028
:103C500045F91F4900F0BCFC00F092FC1D4A1E4BC8
:103C6000FFF7A8F800221D4BFFF776F922002B0082
:103C7000FFF718FB00F02AFD1349F6B211EB06110D
:103C8000C860761CF6B2042ECFDB70BD80B540F262
:103C9000DC5008490968074A1268B2FBF0F200FBE1
:103CA0001210002801D100F065FD01BDFC0B0020C1
:103CB000680100200C0C0020000C0140140C0020B6
:103CC0005401002000300140A40B002000380040C7
:103CD00000007A449A9999999999C93F0020AC407B
:103CE000F0B400220026002400250023002791F8CC
:103CF00003C01CF00F0C624691F803C05FEACC6C65
:103D000001D58B781A430B781B0621D00368002459
:103D100006E0CD78482D02D10125A5400561641C3F
:103D2000082C14D20125A5400E882E40AE42F6D1B3
:103D3000A5000F2616FA05F7BB4312FA05F52B432B
:103D4000CD78282DE5D10125A5404561E7E7036041
:103D50000B88FF2B26DD4368002420E0012514F1A9
:103D60000806B5400E882E40AE4217D1A5000F269A
:103D700016FA05F7BB4312FA05F52B43CD78282D2B
:103D800004D1012514F10806B5404561CD78482DD0
:103D900004D1012514F10806B5400561641C082C06
:103DA000DCD34360F0BC70470022C06889B208428F
:103DB00001D0012200E000221000C0B2704789B299
:103DC0000161704789B24161704770B400220024DC
:103DD00000230025002802D51B4A136801E01B4A76
:103DE0001368C0F3034582B210F44014B4F5401FC9
:103DF00008D133F07063154C246834F07064134DAF
:103E00002C600FE0C40205D50324AC40A34353F05B
:103E1000706307E0440DE4B2240112FA04F4A343F2
:103E200053F07063C9B2002905D0410DC9B2090130
:103E300012FA01F10B43002802D50348036001E0A8
:103E40000248036070BC70471C0001400400014040
:103E500062F30F2262F31F42401810F0030308D0F0
:103E6000C91A1FD3DB0748BF00F8012D28BF20F86F
:103E7000022D130030B414461546103928BF20E92E
:103E80003C00FAD8490728BF20E90C0048BF40F899
:103E9000042D890028BF20F8022D48BF00F8012D0D
:103EA00030BC7047C91818BF00F8012DCB0728BFD8
:103EB00000F8012D704700000EB400B582B003A9D0
:103EC0000091024600AB0121034878440A30FDF717
:103ED000C1FB06BC5DF810FBDF160000FF2212EAF2
:103EE000D05C1DBF12EAD153944593422BE09C4411
:103EF000D30780EA01021A4043EA002043EA012185
:103F0000A1FB0030410038BF40007CF17F010BDB9A
:103F1000FE294ADA5B0842EAC15153EA006373F1B1
:103F2000004C51EB10207047D1F1080CDCF120015E
:103F30002FDB5B0810FA01F10B4373F1004120FA0B
:103F40000CF05041704794451CBF02EAD153934294
:103F500080EA010202F000421DD0400019D0490061
:103F600017D05BB9634514D00902B1FA81F39940C7
:103F7000BCEB030CC00140F00040C1E70002B0FA06
:103F800080FC10FA0CF0B3EB0C0CC90141F00041BD
:103F9000B6E71000704740000AD0490008D010F181
:103FA000807F94BF11F1807F02E042F0FF407047B4
:103FB000D043704730B400220021002300243D4D3F
:103FC0002D6815F00C052A00002A04D0042A05D01B
:103FD000082A06D021E03849016020E03649016016
:103FE0001DE03449096811F47011324A126812F464
:103FF0008033890C891C002B03D1304A5143016066
:104000000AE02C4A1268920303D52C4A51430160FE
:1040100002E0294A5143016001E027490160254936
:10402000096811F0F00212092549545C0168E14069
:1040300041602049096811F4E062120A2049545C89
:104040004168E14081601B49096811F46052D20A5D
:104050001B49545C4168E140C1601649096811F48C
:104060004042920B1749545CC168B1FBF4F1016105
:1040700030BC7047C9B2002905D01349096808430C
:104080001149086005E01049096831EA00000E494D
:1040900008607047C9B2002905D00C490968084377
:1040A0000A49086005E00949096831EA0000074942
:1040B000086070470410024000127A0000093D00B9
:1040C0003C01002058010020181002401C10024042
:1040D000DFF83401DFF834110860DFF83401DFF86D
:1040E0002C1108607047DFF82C01006850F0800048
:1040F000DFF820110860704738B5040004255FF42C
:10410000302000F08DF80500EDB2042D20D1DFF84D
:104110000401006850F00200DFF8F8100860DFF8D2
:10412000F8000460DFF8EC00006850F04000DFF8B1
:10413000E41008605FF4302000F072F80500DFF84A
:10414000D400006841F6FD710840DFF8C81008602F
:104150002800C0B232BD70B582B005000C00042644
:10416000002000904FF4005000F05AF80600F6B21C
:10417000042E2DD1DFF89C00006850F00100DFF81C
:10418000941008602C804FF4005000F049F80600AD
:10419000F6B2042E13D1A81C0090200C00990880C0
:1041A0004FF4005000F03CF80600DFF868000068AB
:1041B00041F6FE710840DFF85C10086008E0DFF8A7
:1041C0005400006841F6FE710840DFF848100860AE
:1041D0003000C0B276BD11490860704704200F4915
:1041E0000968C90701D501200CE00C4800684007A8
:1041F00001D5022006E009480068C00601D5032069
:1042000000E00420C0B2704723016745042002404B
:10421000AB89EFCD10200240142002400C20024058
:1042200038B504000425FFF7D9FF050003E0FFF7C8
:10423000D5FF0500641EEDB2012D01D1002CF6D191
:10424000002C00D105252800C0B232BD70B5040095
:104250000D000326DFF8D002844205D11021DFF8DB
:10426000CC02FFF7AFFD05E04FF48051DFF8C0024C
:10427000FFF7A8FD0221200000F0BEFA0028F9D0C7
:10428000EDB2290089B2200000F0B2FA012120002D
:1042900000F0B2FA0028F9D0200000F0ABFADFF805
:1042A0009412F6B27054032619E00221200000F0A7
:1042B000A3FA0028F9D0FF21200000F099FA01218B
:1042C000200000F099FA0028F9D0200000F092FABE
:1042D000DFF86012F6B2711801F8010C761EF6B222
:1042E000002EE2D1DFF84002844205D11021DFF830
:1042F0003C02FFF764FD05E04FF48051DFF8300227
:10430000FFF75DFDD6F10400C0B270BD70B50400CA
:104310000D00DFF81402844205D11021DFF80C02F1
:10432000FFF750FD05E04FF48051DFF80402FFF77E
:1043300049FD0221200000F05FFA0028F9D0290E83
:10434000C9B289B2200000F053FA0121200000F028
:1043500053FA0028F9D0200000F04CFADFF8D4110D
:10436000C87003261FE00221200000F045FA002853
:10437000F9D0701EC0B2C00035FA00F1C9B289B2DE
:10438000200000F035FA0121200000F035FA002865
:10439000F9D0200000F02EFADFF89811F6B271186B
:1043A00001F8010C761EF6B2002EDCD1DFF87801A0
:1043B000844205D11021DFF87401FFF700FD05E00C
:1043C0004FF48051DFF86801FFF7F9FC1420FFF784
:1043D000E7FB280E10F07F012000FFF737FFE8B25F
:1043E00054490978884207D1C5F3072051494978D3
:1043F000884201D1012000E00020C0B270BD10B59C
:1044000004004D492000FFF781FF4C492000FFF7D1
:104410007DFF4B492000FFF779FF4A492000FFF755
:1044200075FF49492000FFF771FF48492000FFF759
:104430006DFF47492000FFF769FF46492000FFF75D
:1044400065FF45492000FFF761FF44492000FFF761
:104450005DFF43492000FFF759FF42492000FFF765
:1044600055FF002802D1404800F0E7F95FF03241E3
:104470002000FFF74BFF10BD38B500240621FFF7E1
:10448000E5FE042822D12B4880782A494978090280
:1044900051EA00402749097851EA000421003348D5
:1044A00000F0CBF92000FEF7B7FB0022304BFEF7FF
:1044B00053FD04000D002F48006800F061F8220051
:1044C0002B00FEF777FC00F001F90500280032BD53
:1044D00038B500240721FFF7B9FE042822D115487A
:1044E000807814494978090251EA00401149097855
:1044F00051EA00042100204800F09FF92000FEF757
:104500008BFB00221A4BFEF727FD04000D001B4811
:10451000006800F035F822002B00FEF74BFC00F09D
:10452000D5F80500280032BD0030014000080140E8
:10453000000C0140080C0020BC0000B2102000C09C
:10454000FE0000C2370000C3A60000B2DA0200D0AD
:10455000DA0200D1DA0200D20A0000D3F50000E549
:10456000F50000E7401400E144540008D855000865
:1045700080842E414C010020E855000850010020A5
:104580005FF0FF0C1CEAD05114BF614506E0C1107A
:10459000400721F0E04101F16051704779B900F026
:1045A000004100020AD0B0FA80FC00FA0CF001F1E0
:1045B0006051A1EB0C5101EBD02140057047410245
:1045C0000CBF40F4E0016FF00001002070470000D4
:1045D00010B5FF2313EAD0541DBF13EAD1529C42F9
:1045E0009A4239E0A41ADA0780EA0103134042EA4A
:1045F000012142EA0020421A3CBF641E01EB420244
:10460000090AB2FBF1FE01FB1E221202B2FBF1F01D
:1046100001FB10226EF30F201202B2FBF1FE4EEAF4
:1046200000207F3406DDFE2C24DA53EA500050EBE4
:10463000C45010BDD4F1020401FB1E2240F0807171
:10464000192C1DDC21FA04F0C4F12004A14011430F
:1046500071F10042584110BD9C421ABF03EAD15289
:104660009A420FE080EA010E0EF00043400004D0B1
:10467000490016D143F0FF4010BD490008BFD343A5
:10468000180010BD9C4205D1D21AF7D001F00041AC
:10469000484010BD4A0212BF0846484000F00040A2
:1046A00010BD4AB90902B1FA81F2914044B1A4188F
:1046B000C00140F000409EE7C90141F00041524274
:1046C0000002B0FA80F4A040141B94E74FEAF17C9A
:1046D000BCF1E04C2CBFBCF5001F11E05FEA4C0CB4
:1046E00034BFBCF17F5F2EE05FEA9C0C4FEA0C1CEC
:1046F0004FEA3C0CC10071F100414CEB5070704727
:10470000C90241EA5051C00218BF41F0010141F015
:1047100000414FEA6C50C0F10900212810D240EA54
:10472000CC7CCCF1200C11FA0CF070F10040CCF1F3
:10473000200C21FA0CF00CF0004C40EB0C00704700
:104740004FEACC707047490011F5001F04D84FEABA
:10475000CC10FF30C0057047C817704780B20A49B7
:1047600008607047C0B209490860704780B20849C4
:10477000086070474AF6AA200349086070474CF663
:10478000CC400149086070470030004004300040D0
:104790000830004010B4002203881A0012F441527D
:1047A0000B884C8823438C882343CC8823430C8973
:1047B00023434C8923438C892343CC8923431A43C5
:1047C0000280828B4FF2FF731A408283098A018232
:1047D00010BC7047C9B2002904D0018851F04001D3
:1047E000018004E001884FF6BF72114001807047DC
:1047F000818170478089704700220089084201D07A
:10480000012200E000221000C0B27047012110F028
:104810001F029140844A40B2400942F8201070477C
:10482000BFF34F8F8148006810F4E060804908436F
:104830007E490860BFF34F8FFEE70EB430B5C0B0BD
:1048400043AA010000A800F015F900A8FDF7CAFF6F
:10485000050000240DE040217648FFF74AF80028C3
:10486000F9D000A8E4B2215C89B27248FFF739F8A8
:10487000641CE4B2EDB2AC42EDD340B030BC5DF8A4
:1048800010FB10B504002100C9B289B26948FFF7D6
:1048900028F840216748FFF72CF80028F9D02000BD
:1048A00010BD10B5002420216248FFF722F800282F
:1048B00017D061484088002805D15FF08040FFF79D
:1048C0008FF85D4988805B48FFF70FF804005A486D
:1048D000594949880818847157484088401C5649EE
:1048E000488055484088B0F5806F08DD0120524966
:1048F0000870002240F225514E48FEF7C9FF2520DE
:10490000FFF784FF10BD10B5002489B2042903DA33
:104910004A48FFF792FF4FE0040042A1200000F058
:10492000BFF8040006222100454800F0DFF8002807
:1049300011D13CA1002000F0B3F80400200000F0E9
:10494000EAF804003F480470FFF760F821003E4891
:10495000FFF773FF30E0062221003C4800F0C6F864
:10496000002805D1374801783948FFF766FF23E072
:1049700008222100374800F0B9F8002809D136484C
:10498000FFF75BFF3548FFF758FF3548FFF755FF46
:1049900012E007222100334800F0A8F8002808D1CF
:1049A0003148FFF74AFF6420FFF7FAF8FFF738FFB6
:1049B00002E02E48FFF741FF10BD10B51E484088A9
:1049C000002812D05FF08040FFF70AF81A49898862
:1049D000401A80B2652808DB0120174908700022C0
:1049E00040F225511348FEF753FF13480078012881
:1049F00017D1114841881E48FFF785FF00200E4956
:104A0000087000200C494880012240F225510948D5
:104A1000FEF73EFF4FF480610022154C2000FFF7A7
:104A200017FA10BD3D00000080E200E00CED00E050
:104A30000400FA05003801407405002034550008D0
:104A400030560008FC0B002050550008385600086E
:104A5000F855000818560008B45300086C550008B3
:104A6000B854000840560008D8540008F453000811
:104A70007A05002016B504460A46009401AB00A949
:104A8000064878441630FCF7E5FD009A00211170C5
:104A900000285CBF0098001B16BD00BF27DDFFFF8C
:104AA00070B504460D461048FEF770FC064644B14A
:104AB0002946204600F033F80419207830B93060D8
:104AC00070BD3468002CF3D1002070BD294620460B
:104AD00000F036F80019017811B1002100F8011B2F
:104AE0003060204670BD00BF6001002001E0491C1D
:104AF000521E72B10B7890F800C09C4505D002D2CE
:104B00004FF0FF3070470120704710F8013B002B39
:104B1000EDD1002070470A22002100F0C5B830B462
:104B2000024604E014F8015BAB4203D1521C137837
:104B30001BB10C462578002DF4D130BC101A7047FB
:104B400030B4024600E0521C13783BB10C46257885
:104B5000002DF8D014F8015BAB42F8D130BC101A2C
:104B6000704700002DE9F04F85B004460D46904691
:104B70001E001CBF00203060A14601E009F10109C0
:104B800099F8000000F0BAF80028F7D199F8000071
:104B90002D2816BF2B2819F8017B2B27B8F1000F01
:104BA00055D4B8F1010F52D0B8F1250F4FDAB8F152
:104BB000010F0DDBB8F1100F04BF99F80000302889
:104BC00002BF99F8010040F02000782814D10EE0CF
:104BD00099F80000302818BF4FF00A080CD199F856
:104BE000010040F02000782804D14FF0100809F1AE
:104BF000020901E04FF00808CDF8109001E009F13A
:104C0000010999F800003028F9D00FF2A00B4FF0FD
:104C1000000ACDF80C908DF808B00AE09DF8081055
:104C2000CDF804A0401AC0B2009008FB0A0A09F1AE
:104C3000010999F8000000F06BF801464246584619
:104C4000FDF7ECFD0028E9D10498484503D105B1F2
:104C50002C60002025E00FF27C01039818F8011069
:104C6000A9EB0000401A14D4012808DA0098BAEB26
:104C7000000004D30199B0FBF8F0884209D000F09D
:104C800051F8222101600EB1012030604FF0FF3A4F
:104C900003E02D2F08BFCAF1000A0DB1C5F800903E
:104CA000504605B0BDE8F08F00235BE7303132336A
:104CB0003435363738396162636465666768696AB6
:104CC0006B6C6D6E6F707172737475767778797ABC
:104CD0000000000000002115110E0D0C0B0B0A0A3C
:104CE0000909090909080808080808080707070743
:104CF00007070707070707070700000010B5044666
:104D00000120FEF78BFA2046BDE8104000F010B8F5
:104D100010B504460120FEF781FA2046BDE8104098
:104D200000F010B80148FEF731BB0000640100201C
:104D3000A0F10901052901D3202801D101207047E4
:104D400000207047A0F141011A2938BF2030704778
:104D500080B50121AA48FFF79DF9012145F21D0008
:104D6000FFF788F901BD80B5E020ADF80000032011
:104D70008DF8020018208DF8030000A9A148FEF765
:104D8000AFFF1020ADF8000010208DF8030000A93F
:104D90009C48FEF7A5FF10219A48FFF710F84FF442
:104DA0006040ADF8000003208DF8020018208DF857
:104DB000030000A99448FEF793FF4FF48050ADF82C
:104DC000000010208DF8030000A98F48FEF788FF2F
:104DD0004FF480518C48FEF7F2FF4FF48060ADF83D
:104DE000000004208DF8030000A98648FEF778FF34
:104DF0004FF40070ADF8000018208DF8030000A9F2
:104E00008048FEF76DFF0820ADF8000004208DF803
:104E1000030000A97B48FEF763FF0420ADF8000003
:104E200018208DF8030000A97648FEF759FF1020DE
:104E30008DF803000220ADF8000000A97148FEF7CC
:104E40004FFF02216F48FEF7BDFF01216F48FEF7BB
:104E5000BCFF01216D48FEF7B8FF7820ADF80000D7
:104E600010208DF8030000A96748FEF739FF78216C
:104E70006548FEF7A7FF01BD80B54FF4C06000F0A4
:104E8000E1F825208DF8000001208DF801000020B8
:104E90008DF8020001208DF8030000A800F0D7F87B
:104EA00026208DF8000000208DF8010000208DF8EC
:104EB000020001208DF8030000A800F0C8F801BD31
:104EC000E0B54FF6FF70ADF8040041F61F40ADF8B5
:104ED00000000020ADF806000020ADF8020000A997
:104EE0005FF08040FEF724FD01215FF08040FEF777
:104EF00069FD07BD00B585B05FF4E130009000208A
:104F0000ADF804000020ADF806000020ADF8080060
:104F10000020ADF80C000C20ADF80A0000A93C48B8
:104F2000FEF746FC012240F225513948FEF7B0FC5D
:104F300001213748FEF79EFC40F225513448FEF728
:104F4000E5FC05B000BD00B585B05FF4E130009030
:104F50000020ADF804000020ADF806000020ADF8F8
:104F600008000020ADF80C000C20ADF80A0000A9E4
:104F70002848FEF71DFC012240F225512548FEF786
:104F800087FC01212348FEF775FC40F2255121489A
:104F9000FEF7BCFC05B000BD00B585B00020ADF843
:104FA00000004FF48270ADF802000020ADF804005C
:104FB0000020ADF806000120ADF808004FF40070A5
:104FC000ADF80A002820ADF80C000020ADF80E0066
:104FD0000720ADF8100000A90F48FFF7DBFB012107
:104FE0000D48FFF7F7FB2020ADF80C0000A90B4897
:104FF000FFF7D0FB01210948FFF7ECFB05B000BD2E
:105000000140020000080140000C01400002300095
:1050100000380140004400400030014000380040AA
:1050200080B545F25550FFF799FB0320FFF79AFB37
:1050300040F63540FFF79AFBFFF79CFBFFF79FFB1D
:1050400001BD00002249084322490860704710B49E
:10505000002100220F23C478002C1DD01D490968AF
:1050600011F4E061D1F5E061090AD1F10402CB400D
:105070004178914082781A4011430901164A037819
:1050800099540121027812F01F029140134A0078CE
:10509000401142F8201009E00121027812F01F02AD
:1050A00091400F4A0078401142F8201010BC704720
:1050B000042806D10B48006850F004000949086034
:1050C00005E00848006830F00400064908607047B1
:1050D0000000FA050CED00E000E400E000E100E073
:1050E00080E100E010E000E080B54F48006850F03B
:1050F00001004D4908604D4800684D4908404B4942
:105100000860494800684B490840474908604648DC
:10511000006830F48020444908604448006830F456
:10512000FE00424908605FF41F004349086000F038
:1051300005F85FF000604149086001BD80B500F0EE
:1051400001F801BD82B00020019000200090364897
:10515000006850F48030344908603348006810F427
:10516000003000900198401C01900098002803D165
:105170000198B0F5A06FF0D12B480068800302D5EC
:105180000120009001E0002000900098012847D104
:105190002B48006850F01000294908602848006832
:1051A00080088000264908602548006850F0020009
:1051B000234908601D4800681C4908601B480068B6
:1051C0001A4908601948006850F48060174908605F
:1051D0001648006830F47C101449086013480068D1
:1051E00050F4E810114908600F48006850F08070D2
:1051F0000D4908600C4800688001FBD50B48006829
:1052000080088000094908600848006850F00200E2
:10521000064908600548006810F00C000828F9D11C
:1052200002B070470000000000100240041002406D
:105230000000FFF8FFFFF6FE0810024008ED00E056
:1052400000200240816807E00268116853688918ED
:105250005B18C36008320260C2689142F4D04A1CF5
:105260008260087870472DE9FF4D00F10801009138
:1052700000270268520801EBC2010191B8460021E3
:10528000029103910168490800EBC101406800F0F8
:10529000010501F10804400804EBC00631E000A854
:1052A000FFF7D0FF4FFA80FA0AE00098016808186B
:1052B00000990290496808180390009808300090FF
:1052C000029803998842F0D0401C029010F801BD6A
:1052D00047450CD1B44208BFFCF788F9276805B1EF
:1052E0004F44606800EB070808344745F2D007F8E0
:1052F00001BBBAF1000F0AD51AF1010AE8D14745FE
:10530000CDD1B442CBD1304604B0BDE8F08DBAF176
:10531000010AD5D5F3E7000080B5FFF719FDFFF7C7
:1053200022FDFFF7A9FD00F031F8FFF7C9FDFFF7F7
:10533000E1FDFFF708FEFFF72FFE6420FEF730FCCB
:105340000F48FFF75CF80F48FFF759F8FEF77DFBB1
:10535000FFF766FE5FF08040FEF742FB0A490880D7
:10536000FEF794FCFEF705FCFEF7A7FBFEF72CFC0E
:10537000FEF74CFCFFF721FBFEF7CEF9F0E700BF8C
:105380000030014000380040140C002080B57FF050
:105390000400FFF78DFE044800680449B0FBF1F0FB
:1053A0000349087001BD00005C01002000127A0072
:1053B000160C0020B5F7CAD4C3FCC1EEB7D6CEAAEE
:1053C000D3D0B2CECAFDBACDCEDEB2CECAFDC3FCBA
:1053D000C1EEA3ACB8F1CABDCEAA3CC3FCC1EE3E3F
:1053E0003A3CB2CECAFD3E3D3CB2CECAFD3E0D0AAD
:1053F00000000000CEDEB4CBC3FCC1EEA3ACC7EB13
:10540000CAB9D3C36765742D68656C70B2E9BFB45F
:10541000CBF9D3D0C3FCC1EE0D0A000010B507498B
:1054200079441831064C7C44163404E00A68081D9F
:10543000511888470146A142F8D110BD5000000024
:105440007800000041545437303533415520696E9F
:10545000697469616C697A65206661696C6564214B
:1054600021210D0A000000005253343835207265A6
:105470006365697665206461746120636865636B48
:105480002073756D2077726F6E67210067C1FFFF13
:10549000AC0A00006C01002000000000CBFDFFFF03
:1054A000020000000200000048020000540000005A
:1054B0000000002069010000207365742D69643DBF
:1054C00032382D2D2D2DC9E8D6C3C9E8B1B84944CD
:1054D000CEAA32380D0A00006465766963652077CC
:1054E000696C6C206265207265737461727421212D
:1054F000212121210D0A00007047FEE7FEE7FEE7AB
:10550000FEE770477047704780B5FFF7CAF901BDE5
:1055100080B5FDF748FF01BD525334383520726520
:10552000636569766520646174612077726F6E6768
:1055300021000000526563656976656420646174CA
:1055400061206572726F722121210D0A0000000036
:105550007365742049443D256420737563636573E6
:105560007366756C6C79210D0A00000020726573FA
:10557000746172742D2D2D2DD6D8D0C2C6F4B6AF5D
:10558000C9E8B1B80D0A000000F00BF8002801D0FE
:10559000FFF744FF0020C046C046FFF7BDFE00F005
:1055A00002F80120704700F001B8000007463846B5
:1055B000FCF746F8FBE738B504460D46284600F0F0
:1055C00005F8A84218BF0024204632BD0149FFF764
:1055D00058B900BFFC00002043757272656E7431CB
:1055E0003D2523780D0A000043757272656E743292
:1055F0003D2523780D0A00006465766963652049BE
:10560000443D25640D0A00000148804701480047D9
:10561000E9500008255600086765742D68656C70B0
:1056200000000000C046C046C046C046FFF7ACFFC1
:105630007365742D696400006765742D69640000EA
:105640007265737461727400FFF7FEBFFFF7FEBFEF
:10565000FFF7FEBFFFF7FEBFFFF7FEBFFFF7FEBF7E
:10566000FFF7FEBFFFF7FEBFFFF7FEBFFFF7FEBF6E
:10567000FFF7FEBFFFF7FEBFFFF7FEBFFFF7FEBF5E
:10568000FFF7FEBFFFF7FEBFFFF7FEBFFFF7FEBF4E
:10569000FFF7FEBFFFF7FEBFFFF7FEBFFFF7FEBF3E
:1056A000FFF7FEBFFFF7FEBFFFF7FEBFFFF7FEBF2E
:1056B000FFF7FEBFFFF7FEBFFFF7FEBFFFF7FEBF1E
:1056C000FFF7FEBFFFF7FEBFFFF7FEBFFFF7FEBF0E
:1056D000FFF7FEBFFFF7FEBFFFF7FEBFFFF7FEBFFE
:1056E000FFF7FEBFFFF7FEBFFFF7FEBFFFF7FEBFEE
:1056F000E400F8FFDC00FAFF8100D1001F02040182
:1057000001540B0020A40B0020540B0020540B006C
:1057100020540B00203901002020010020DC00145F
:10572000010203040102030406070809D1BA374045
:10573000D1BA37400AFD00070204060800A24A0455
:04574000F80000016C
:040000050800562574
:00000001FF
